:020000040000FA
:060000000A128A110C280F
:10000800FE00030EF3000A08F4000A128A115D28A4
:100018000A128A110F2883132A30FD000030FE00CF
:100028008E30FF00203084000A128A117F200A12C5
:100038008A1183010A128A11212883160313880161
:1000480085018030810006148B170B160B1783125D
:100058000313AA01AB01831203132A08203E84006C
:100068008313000888000D30F700AF30F600B63073
:10007800F500F50B3D28F60B3D28F70B3D28000051
:10008800013083120313AA070318AB0A0030AB0729
:100098002B08803AFF0080307F02031D55280A3064
:1000A8002A02031C582859282F282B280A128A119B
:1000B8000C288030831203138800013085000D302E
:1000C800F200AF30F100B630F000F00B6928F10B08
:1000D8006928F20B692800008312031385018B102D
:1000E80074088A00730E8300FE0E7E0E09007E08D7
:1000F8008A007F0882000A128A117B200A128A115C
:100108008000840A04087D0603190034FF0A0319D5
:10011800FE0A7F283F3406345B344F3466346D342E
:080128007D3407347F346F348D
:02400E003A3E38
:00000001FF
