:020000040000FA
:060000000A128A11F22F22
:100B7800F201F301D62DF401F5010130F407031851
:100B8800F50A0030F50700307502A5300319740224
:100B9800031CCF2DD02DC12D0130F2070318F30A05
:100BA8000030F30771087302031DDC2D7008720210
:100BB800031CDF2DE02DBF2D0800831603138801C9
:100BC8000F30F0000030F1000A128A11BC250A1219
:100BD8008A1102300A128A110C260A128A11283048
:100BE8000A128A110C260A128A1101300A128A1175
:100BF8000C260A128A110C300A128A110C260A12C3
:100C08008A1106300A128A110C260A128A11080063
:100C1800F200F0307205F0008312031308080F3950
:100C280070048800061086140730F1007D30F0004B
:100C3800F00B1C2EF10B1C2E8312031386100730A9
:100C4800F1007D30F000F00B272EF10B272E7208F3
:100C5800F00004300310F00DFF3E031D2E2E83120A
:100C6800031308080F397004880086140730F10050
:100C78007D30F000F00B3E2EF10B3E2E8312031355
:100C880086100730F1007D30F000F00B492EF10B93
:100C9800492E0800F200F0307205F00083120313A9
:100CA80008080F3970048800061486144130F100D2
:100CB800EE30F000F00B5E2EF10B5E2E000083127A
:100CC800031386104130F100EE30F000F00B6A2E6D
:100CD800F10B6A2E00007208F00004300310F00DCA
:100CE800FF3E031D722E8312031308080F39700488
:100CF800880086144130F100EE30F000F00B822EAF
:100D0800F10B822E00008312031386104130F1008C
:100D1800EE30F000F00B8E2EF10B8E2E0000080046
:100D2800F601F31F982E992EA02EF209F309F20A64
:100D38000319F30AF601F60AF11FA32EA42EA92E11
:100D4800F009F109F00A0319F10A7008710403198E
:100D5800AE2EAF2EDE2EF501F50ABD2E01300310A2
:100D6800F00DF10DFF3E031DB32E0130F4007408A1
:100D7800F507F11FC02EC12EB22E71087302031D94
:100D8800C72E70087202031CCA2ECB2ED12E7008F3
:100D9800F2027108031CF303F30201300310F10C93
:100DA800F00CFF3E031DD22E0130F502031DDD2E8F
:100DB800DE2EC12E76080319E22EE32EE82EF20964
:100DC800F309F20A0319F30A7308F1007208F00034
:100DD8000800F601F11FF12EF22EF92EF009F109A3
:100DE800F00A0319F10AF601F60AF31FFC2EFD2E8C
:100DF800062FF209F309F20A0319F30A0130F40085
:100E08007408F606F701F8017008710403190D2F2C
:100E18000E2F452FF501F50A1C2F01300310F00D98
:100E2800F10DFF3E031D122F0130F4007408F50781
:100E3800F11F1F2F202F112F01300310F70DF80D70
:100E4800FF3E031D212F71087302031D2D2F70080B
:100E58007202031C302F312F382F7008F2027108EC
:100E6800031CF303F302771401300310F10CF00CA8
:100E7800FF3E031D392F0130F502031D442F452F76
:100E8800202F76080319492F4A2F4F2FF709F80901
:100E9800F70A0319F80A7808F1007708F000080043
:100EA8008316031386010A128A11E1250A128A1190
:100EB8000830FB009D30FA000530F900F90B622F6D
:100EC800FA0B622FFB0B622F692F7C08013EFC0096
:100ED8007D080318013E003EFD007D08803AFF00B2
:100EE80080307F02031D7A2F0A307C0203187D2F81
:100EF8007E2F852F7D0883120313A3007C08A20090
:100F0800CE2F7D08803AFF0080307F02031D8E2F90
:100F180064307C020318912F922FB92F0A30F00009
:100F28000030F1007D08F3007C08F2000A128A11F3
:100F380094260A128A11710883120313A3007008F9
:100F4800A2000A30F0000030F1007D08F3007C08B0
:100F5800F2000A128A11ED260A128A117108831208
:100F68000313A1007008A000CE2F7D08803AFF006F
:100F780080307F02031DC22F64307C02031CC52F02
:100F8800C62FCE2F83120313A201A301A001A10132
:100F9800FC01FD01831203132208303EF900790891
:100FA800A5002008303EF9007908A40080300A1214
:100FB8008A110C260A128A116B300A128A114E26DF
:100FC8000A128A118312031325080A128A114E265F
:100FD8000A128A115C2F0A128A110028FC01FD01ED
:100FE80083120313A001A101A201A301A401A50179
:080FF80083010A128A11542F33
:02400E003A1C5A
:00000001FF
