:020000040000FA
:060000000A128A110C280F
:10000800FE00030EF5000A08F6000A128A11272AD4
:100018000A128A110F28F70183120313BA01BB01D0
:1000280083010A128A11B22983120313B6002E30F3
:10003800B0003008B300E028253039060319252818
:1000480026282D2839080A128A11D6210A128A115F
:10005800E028B4010130B607FF30360784000A12E1
:100068008A1100220A128A11B900B000B1013108C0
:10007800003A03194028E0283008003A0319F42808
:10008800643A03194B280D3A03194B28E028330822
:10009800840083130008B700840A0008B8000230FF
:1000A800B0003008B307B81F5A285B28642803300B
:1000B800B0003008B404B709B809B70A0319B80A78
:1000C800B901B90A3908B0003007013E84000A12A4
:1000D8008A1100220A128A11B1000A128A1100221A
:1000E8000A128A11B20032083802031D7D2831082D
:1000F800370203188028812882288C280130B00014
:100108003008B90705303906031D8B288C28662866
:100118003408033903199128922898282D300A1297
:100128008A11D6210A128A11831203133908B000E2
:100138003008B500D5280A30A8000030A9003508D5
:10014800B0003007013E84000A128A1100220A1208
:100158008A11A0000A128A1100220A128A11A1002B
:100168003808A3003708A2000A128A11F5200A12DB
:100178008A11831203132108AB002008AA000A126F
:100188008A113B210A128A11831203132808303E70
:10019800B1003108B90039080A128A11D6210A12A9
:1001A8008A11FF3083120313B0003008B507350AEF
:1001B800031DDF28E0289F28013083120313B607A8
:1001C800FF30360784000A128A1100220A128A11A7
:1001D800B0003008B9003908031DF328F428202896
:1001E800080083120313A501A6012008210403199E
:1001F800FE28FF283629A701A70A0D290130031078
:10020800A00DA10DFF3E031D03290130A400240801
:10021800A707A11F10291129022901300310A50DD4
:10022800A60DFF3E031D122921082302031D1E29C6
:1002380020082202031C2129222929292008A20298
:100248002108031CA303A302251401300310A10CE9
:10025800A00CFF3E031D2A290130A702031D3529E2
:10026800362911292608A1002508A00008008312B4
:100278000313280829040319422943297229AD01C7
:10028800AD0A512901300310A80DA90DFF3E031D29
:1002980047290130AC002C08AD07A91F542955295E
:1002A800462929082B02031D5B2928082A02031C5A
:1002B8005E295F2965292808AA022908031CAB03BF
:1002C800AB0201300310A90CA80CFF3E031D6629E0
:1002D8000130AD02031D7129722955292B08A90087
:1002E8002A08A8000800C730F0007A29F00B7929FD
:1002F8007D297E2983120313060E0139F000060EAC
:10030800F100710C0139F20072077004F3007308F0
:10031800F4007708031D91299229AA297403031D63
:10032800962997299E29FF30BA070318BB0AFF3080
:10033800BB07AA2902307406031DA329A429AA29E8
:100348000130BA070318BB0A0030BB077408F00075
:100358007008F700060886000B10080083160313C0
:100368000616861681130B108B158B170B170A129E
:100378008A1117220A128A11831203133B08AF004D
:100388003A08AE000B300A128A1118200A128A1194
:1003980010300A128A1118200A128A11C0290A126A
:1003A8008A110C2883120313A20083160313981CC6
:1003B800DE29DF29D9298312031322089900033083
:1003C80083120313A1009730A000A00BE929A10B09
:0403D800E929080007
:1004000002308A000408840A820700340134003470
:100410000A34003464340034E834033410342734AC
:100420002534643420340A3400340D340034831607
:100430000313181218119816071390308312031320
:1004400098008316031398160630990008000B1CB9
:100450002A2A2B2A302A0A128A1177210A128A1193
:0E04600076088A00750E8300FE0E7E0E0900DF
:02400E003A3F37
:00000001FF
